{
  "contractName": "Voting",
  "abi": [
    {
      "inputs": [
        {
          "internalType": "string[]",
          "name": "_candidateNames",
          "type": "string[]"
        }
      ],
      "stateMutability": "nonpayable",
      "type": "constructor"
    },
    {
      "anonymous": false,
      "inputs": [
        {
          "indexed": false,
          "internalType": "string",
          "name": "message",
          "type": "string"
        }
      ],
      "name": "Debug",
      "type": "event"
    },
    {
      "anonymous": false,
      "inputs": [
        {
          "indexed": false,
          "internalType": "address",
          "name": "voter",
          "type": "address"
        },
        {
          "indexed": false,
          "internalType": "uint256",
          "name": "candidateIndex",
          "type": "uint256"
        }
      ],
      "name": "Voted",
      "type": "event"
    },
    {
      "anonymous": false,
      "inputs": [
        {
          "indexed": false,
          "internalType": "string[]",
          "name": "candidates",
          "type": "string[]"
        },
        {
          "indexed": false,
          "internalType": "uint256",
          "name": "duration",
          "type": "uint256"
        }
      ],
      "name": "VotingStarted",
      "type": "event"
    },
    {
      "anonymous": false,
      "inputs": [],
      "name": "VotingStopped",
      "type": "event"
    },
    {
      "inputs": [],
      "name": "DEFAULT_VOTING_DURATION",
      "outputs": [
        {
          "internalType": "uint256",
          "name": "",
          "type": "uint256"
        }
      ],
      "stateMutability": "view",
      "type": "function",
      "constant": true
    },
    {
      "inputs": [
        {
          "internalType": "uint256",
          "name": "",
          "type": "uint256"
        }
      ],
      "name": "candidates",
      "outputs": [
        {
          "internalType": "string",
          "name": "",
          "type": "string"
        }
      ],
      "stateMutability": "view",
      "type": "function",
      "constant": true
    },
    {
      "inputs": [
        {
          "internalType": "bytes32",
          "name": "",
          "type": "bytes32"
        }
      ],
      "name": "hasVoted",
      "outputs": [
        {
          "internalType": "bool",
          "name": "",
          "type": "bool"
        }
      ],
      "stateMutability": "view",
      "type": "function",
      "constant": true
    },
    {
      "inputs": [],
      "name": "isVotingActive",
      "outputs": [
        {
          "internalType": "bool",
          "name": "",
          "type": "bool"
        }
      ],
      "stateMutability": "view",
      "type": "function",
      "constant": true
    },
    {
      "inputs": [],
      "name": "owner",
      "outputs": [
        {
          "internalType": "address",
          "name": "",
          "type": "address"
        }
      ],
      "stateMutability": "view",
      "type": "function",
      "constant": true
    },
    {
      "inputs": [
        {
          "internalType": "uint256",
          "name": "",
          "type": "uint256"
        }
      ],
      "name": "voterIds",
      "outputs": [
        {
          "internalType": "bytes32",
          "name": "",
          "type": "bytes32"
        }
      ],
      "stateMutability": "view",
      "type": "function",
      "constant": true
    },
    {
      "inputs": [
        {
          "internalType": "uint256",
          "name": "",
          "type": "uint256"
        }
      ],
      "name": "votesReceived",
      "outputs": [
        {
          "internalType": "uint256",
          "name": "",
          "type": "uint256"
        }
      ],
      "stateMutability": "view",
      "type": "function",
      "constant": true
    },
    {
      "inputs": [],
      "name": "votingEndTime",
      "outputs": [
        {
          "internalType": "uint256",
          "name": "",
          "type": "uint256"
        }
      ],
      "stateMutability": "view",
      "type": "function",
      "constant": true
    },
    {
      "inputs": [
        {
          "internalType": "uint256",
          "name": "",
          "type": "uint256"
        }
      ],
      "name": "votingHistory",
      "outputs": [
        {
          "internalType": "uint256",
          "name": "endTime",
          "type": "uint256"
        }
      ],
      "stateMutability": "view",
      "type": "function",
      "constant": true
    },
    {
      "inputs": [
        {
          "internalType": "string[]",
          "name": "_candidateNames",
          "type": "string[]"
        },
        {
          "internalType": "uint256",
          "name": "_durationInSeconds",
          "type": "uint256"
        }
      ],
      "name": "startVoting",
      "outputs": [],
      "stateMutability": "nonpayable",
      "type": "function"
    },
    {
      "inputs": [],
      "name": "stopVoting",
      "outputs": [],
      "stateMutability": "nonpayable",
      "type": "function"
    },
    {
      "inputs": [
        {
          "internalType": "bytes32",
          "name": "voterId",
          "type": "bytes32"
        },
        {
          "internalType": "uint256",
          "name": "_candidateIndex",
          "type": "uint256"
        }
      ],
      "name": "vote",
      "outputs": [],
      "stateMutability": "nonpayable",
      "type": "function"
    },
    {
      "inputs": [
        {
          "internalType": "uint256",
          "name": "_candidateIndex",
          "type": "uint256"
        }
      ],
      "name": "getVotes",
      "outputs": [
        {
          "internalType": "uint256",
          "name": "",
          "type": "uint256"
        }
      ],
      "stateMutability": "view",
      "type": "function",
      "constant": true
    },
    {
      "inputs": [],
      "name": "getTimeRemaining",
      "outputs": [
        {
          "internalType": "uint256",
          "name": "",
          "type": "uint256"
        }
      ],
      "stateMutability": "view",
      "type": "function",
      "constant": true
    },
    {
      "inputs": [],
      "name": "isVotingActiveStatus",
      "outputs": [
        {
          "internalType": "bool",
          "name": "",
          "type": "bool"
        }
      ],
      "stateMutability": "view",
      "type": "function",
      "constant": true
    },
    {
      "inputs": [],
      "name": "getCandidates",
      "outputs": [
        {
          "internalType": "string[]",
          "name": "",
          "type": "string[]"
        }
      ],
      "stateMutability": "view",
      "type": "function",
      "constant": true
    },
    {
      "inputs": [
        {
          "internalType": "uint256",
          "name": "sessionIndex",
          "type": "uint256"
        }
      ],
      "name": "getVotingSessionResults",
      "outputs": [
        {
          "components": [
            {
              "internalType": "string[]",
              "name": "candidates",
              "type": "string[]"
            },
            {
              "internalType": "uint256[]",
              "name": "sessionVotes",
              "type": "uint256[]"
            },
            {
              "internalType": "uint256",
              "name": "endTime",
              "type": "uint256"
            }
          ],
          "internalType": "struct Voting.VotingSession",
          "name": "",
          "type": "tuple"
        }
      ],
      "stateMutability": "view",
      "type": "function",
      "constant": true
    },
    {
      "inputs": [],
      "name": "votingHistoryLength",
      "outputs": [
        {
          "internalType": "uint256",
          "name": "",
          "type": "uint256"
        }
      ],
      "stateMutability": "view",
      "type": "function",
      "constant": true
    }
  ],
  "bytecode": "0x60806040523480156200001157600080fd5b506040516200300e3803806200300e833981810160405281019062000037919062000565565b60008151116200007e576040517f08c379a0000000000000000000000000000000000000000000000000000000008152600401620000759062000617565b60405180910390fd5b336000806101000a81548173ffffffffffffffffffffffffffffffffffffffff021916908373ffffffffffffffffffffffffffffffffffffffff1602179055508060049080519060200190620000d692919062000147565b506201518042620000e8919062000672565b6001819055506001600060146101000a81548160ff0219169083151502179055507f7cdb51e9dbbc205231228146c3246e7f914aa6d4a33170e43ecc8e3593481d1a604051620001389062000745565b60405180910390a150620007cb565b8280548282559060005260206000209081019282156200019b579160200282015b828111156200019a57825182908051906020019062000189929190620001ae565b509160200191906001019062000168565b5b509050620001aa91906200023f565b5090565b828054620001bc9062000796565b90600052602060002090601f016020900481019282620001e057600085556200022c565b82601f10620001fb57805160ff19168380011785556200022c565b828001600101855582156200022c579182015b828111156200022b5782518255916020019190600101906200020e565b5b5090506200023b919062000267565b5090565b5b8082111562000263576000818162000259919062000286565b5060010162000240565b5090565b5b808211156200028257600081600090555060010162000268565b5090565b508054620002949062000796565b6000825580601f10620002a85750620002c9565b601f016020900490600052602060002090810190620002c8919062000267565b5b50565b6000604051905090565b600080fd5b600080fd5b600080fd5b6000601f19601f8301169050919050565b7f4e487b7100000000000000000000000000000000000000000000000000000000600052604160045260246000fd5b6200033082620002e5565b810181811067ffffffffffffffff82111715620003525762000351620002f6565b5b80604052505050565b600062000367620002cc565b905062000375828262000325565b919050565b600067ffffffffffffffff821115620003985762000397620002f6565b5b602082029050602081019050919050565b600080fd5b600080fd5b600067ffffffffffffffff821115620003d157620003d0620002f6565b5b620003dc82620002e5565b9050602081019050919050565b60005b8381101562000409578082015181840152602081019050620003ec565b8381111562000419576000848401525b50505050565b6000620004366200043084620003b3565b6200035b565b905082815260208101848484011115620004555762000454620003ae565b5b62000462848285620003e9565b509392505050565b600082601f830112620004825762000481620002e0565b5b8151620004948482602086016200041f565b91505092915050565b6000620004b4620004ae846200037a565b6200035b565b90508083825260208201905060208402830185811115620004da57620004d9620003a9565b5b835b818110156200052857805167ffffffffffffffff811115620005035762000502620002e0565b5b8086016200051289826200046a565b85526020850194505050602081019050620004dc565b5050509392505050565b600082601f8301126200054a5762000549620002e0565b5b81516200055c8482602086016200049d565b91505092915050565b6000602082840312156200057e576200057d620002d6565b5b600082015167ffffffffffffffff8111156200059f576200059e620002db565b5b620005ad8482850162000532565b91505092915050565b600082825260208201905092915050565b7f43616e646964617465732061727261792063616e6e6f7420626520656d707479600082015250565b6000620005ff602083620005b6565b91506200060c82620005c7565b602082019050919050565b600060208201905081810360008301526200063281620005f0565b9050919050565b6000819050919050565b7f4e487b7100000000000000000000000000000000000000000000000000000000600052601160045260246000fd5b60006200067f8262000639565b91506200068c8362000639565b9250827fffffffffffffffffffffffffffffffffffffffffffffffffffffffffffffffff03821115620006c457620006c362000643565b5b828201905092915050565b7f566f74696e6720636f6e7472616374206465706c6f796564207769746820636160008201527f6e64696461746573000000000000000000000000000000000000000000000000602082015250565b60006200072d602883620005b6565b91506200073a82620006cf565b604082019050919050565b6000602082019050818103600083015262000760816200071e565b9050919050565b7f4e487b7100000000000000000000000000000000000000000000000000000000600052602260045260246000fd5b60006002820490506001821680620007af57607f821691505b602082108103620007c557620007c462000767565b5b50919050565b61283380620007db6000396000f3fe608060405234801561001057600080fd5b50600436106101165760003560e01c80638da5cb5b116100a2578063dac6270d11610071578063dac6270d146102e5578063f3084a6314610303578063fab2f86b14610333578063fc3407b11461033d578063ff9810991461036d57610116565b80638da5cb5b146102715780639ef1204c1461028f578063b009c8f2146102ab578063bc0a2ab3146102c957610116565b806346a0e25b116100e957806346a0e25b146101b757806347cf6f76146101e75780636da5bd94146102055780637ad5574d14610223578063812bb1c31461024157610116565b806306a49fce1461011b5780631b4613cb146101395780631ea736e0146101695780633477ee2e14610187575b600080fd5b61012361039d565b60405161013091906118af565b60405180910390f35b610153600480360381019061014e919061191b565b610476565b6040516101609190611963565b60405180910390f35b610171610496565b60405161017e9190611997565b60405180910390f35b6101a1600480360381019061019c91906119de565b61049c565b6040516101ae9190611a55565b60405180910390f35b6101d160048036038101906101cc91906119de565b610548565b6040516101de9190611997565b60405180910390f35b6101ef610576565b6040516101fc9190611963565b60405180910390f35b61020d610589565b60405161021a9190611963565b60405180910390f35b61022b6105ac565b6040516102389190611997565b60405180910390f35b61025b600480360381019061025691906119de565b6105b3565b6040516102689190611a86565b60405180910390f35b6102796105d7565b6040516102869190611ae2565b60405180910390f35b6102a960048036038101906102a49190611afd565b6105fb565b005b6102b361085a565b6040516102c09190611997565b60405180910390f35b6102e360048036038101906102de9190611d58565b610867565b005b6102ed610a40565b6040516102fa9190611997565b60405180910390f35b61031d600480360381019061031891906119de565b610a69565b60405161032a9190611997565b60405180910390f35b61033b610a81565b005b610357600480360381019061035291906119de565b610df0565b6040516103649190611f4f565b60405180910390f35b610387600480360381019061038291906119de565b610fae565b6040516103949190611997565b60405180910390f35b60606004805480602002602001604051908101604052809291908181526020016000905b8282101561046d5783829060005260206000200180546103e090611fa0565b80601f016020809104026020016040519081016040528092919081815260200182805461040c90611fa0565b80156104595780601f1061042e57610100808354040283529160200191610459565b820191906000526020600020905b81548152906001019060200180831161043c57829003601f168201915b5050505050815260200190600101906103c1565b50505050905090565b60026020528060005260406000206000915054906101000a900460ff1681565b60015481565b600481815481106104ac57600080fd5b9060005260206000200160009150905080546104c790611fa0565b80601f01602080910402602001604051908101604052809291908181526020018280546104f390611fa0565b80156105405780601f1061051557610100808354040283529160200191610540565b820191906000526020600020905b81548152906001019060200180831161052357829003601f168201915b505050505081565b6006818154811061055857600080fd5b90600052602060002090600302016000915090508060020154905081565b600060149054906101000a900460ff1681565b60008060149054906101000a900460ff1680156105a7575060015442105b905090565b6201518081565b600581815481106105c357600080fd5b906000526020600020016000915090505481565b60008054906101000a900473ffffffffffffffffffffffffffffffffffffffff1681565b600060149054906101000a900460ff1661064a576040517f08c379a00000000000000000000000000000000000000000000000000000000081526004016106419061201d565b60405180910390fd5b60015442111561068f576040517f08c379a000000000000000000000000000000000000000000000000000000000815260040161068690612089565b60405180910390fd5b6002600083815260200190815260200160002060009054906101000a900460ff16156106f0576040517f08c379a00000000000000000000000000000000000000000000000000000000081526004016106e7906120f5565b60405180910390fd5b6004805490508110610737576040517f08c379a000000000000000000000000000000000000000000000000000000000815260040161072e90612161565b60405180910390fd5b60036000828152602001908152602001600020600081548092919061075b906121b0565b919050555060016002600084815260200190815260200160002060006101000a81548160ff02191690831515021790555060058290806001815401808255809150506001900390600052602060002001600090919091909150557f4d99b957a2bc29a30ebd96a7be8e68fe50a3c701db28a91436490b7d53870ca433826040516107e69291906121f8565b60405180910390a17f7cdb51e9dbbc205231228146c3246e7f914aa6d4a33170e43ecc8e3593481d1a61081833611061565b6108218361136c565b6040516020016108329291906122f5565b60405160208183030381529060405260405161084e9190611a55565b60405180910390a15050565b6000600680549050905090565b60008054906101000a900473ffffffffffffffffffffffffffffffffffffffff1673ffffffffffffffffffffffffffffffffffffffff163373ffffffffffffffffffffffffffffffffffffffff16146108f5576040517f08c379a00000000000000000000000000000000000000000000000000000000081526004016108ec906123a1565b60405180910390fd5b600060149054906101000a900460ff1615610945576040517f08c379a000000000000000000000000000000000000000000000000000000000815260040161093c9061240d565b60405180910390fd5b7f7cdb51e9dbbc205231228146c3246e7f914aa6d4a33170e43ecc8e3593481d1a60405161097290612479565b60405180910390a160005b6004805490508110156109b6576000600360008381526020019081526020016000208190555080806109ae906121b0565b91505061097d565b5081600490805190602001906109cd929190611541565b5080426109da9190612499565b6001819055506001600060146101000a81548160ff021916908315150217905550610a036114cc565b7fd719601b45ee6145e3a59d126748f189988ea54dfbd4f88df583000831fd18608282604051610a349291906124ef565b60405180910390a15050565b6000600154421115610a555760009050610a66565b42600154610a63919061251f565b90505b90565b60036020528060005260406000206000915090505481565b60008054906101000a900473ffffffffffffffffffffffffffffffffffffffff1673ffffffffffffffffffffffffffffffffffffffff163373ffffffffffffffffffffffffffffffffffffffff1614610b0f576040517f08c379a0000000000000000000000000000000000000000000000000000000008152600401610b06906123a1565b60405180910390fd5b600060149054906101000a900460ff16610b5e576040517f08c379a0000000000000000000000000000000000000000000000000000000008152600401610b559061201d565b60405180910390fd5b60008060146101000a81548160ff021916908315150217905550600060048054905067ffffffffffffffff811115610b9957610b98611b42565b5b604051908082528060200260200182016040528015610bc75781602001602082028036833780820191505090505b50905060005b600480549050811015610c20576003600082815260200190815260200160002054828281518110610c0157610c00612553565b5b6020026020010181815250508080610c18906121b0565b915050610bcd565b50600060405180606001604052806004805480602002602001604051908101604052809291908181526020016000905b82821015610cfc578382906000526020600020018054610c6f90611fa0565b80601f0160208091040260200160405190810160405280929190818152602001828054610c9b90611fa0565b8015610ce85780601f10610cbd57610100808354040283529160200191610ce8565b820191906000526020600020905b815481529060010190602001808311610ccb57829003601f168201915b505050505081526020019060010190610c50565b50505050815260200183815260200142815250905060068190806001815401808255809150506001900390600052602060002090600302016000909190919091506000820151816000019080519060200190610d59929190611541565b506020820151816001019080519060200190610d769291906115a1565b50604082015181600201555050610d8b6114cc565b7f06511302781925bd62e07aef472aa49b9a036f97fcaf7bd34cabe20ac447679160405160405180910390a17f7cdb51e9dbbc205231228146c3246e7f914aa6d4a33170e43ecc8e3593481d1a604051610de4906125ce565b60405180910390a15050565b610df86115ee565b6006805490508210610e3f576040517f08c379a0000000000000000000000000000000000000000000000000000000008152600401610e369061263a565b60405180910390fd5b60068281548110610e5357610e52612553565b5b906000526020600020906003020160405180606001604052908160008201805480602002602001604051908101604052809291908181526020016000905b82821015610f3d578382906000526020600020018054610eb090611fa0565b80601f0160208091040260200160405190810160405280929190818152602001828054610edc90611fa0565b8015610f295780601f10610efe57610100808354040283529160200191610f29565b820191906000526020600020905b815481529060010190602001808311610f0c57829003601f168201915b505050505081526020019060010190610e91565b50505050815260200160018201805480602002602001604051908101604052809291908181526020018280548015610f9457602002820191906000526020600020905b815481526020019060010190808311610f80575b505050505081526020016002820154815250509050919050565b60008060149054906101000a900460ff1615610fff576040517f08c379a0000000000000000000000000000000000000000000000000000000008152600401610ff6906126f2565b60405180910390fd5b6004805490508210611046576040517f08c379a000000000000000000000000000000000000000000000000000000000815260040161103d90612161565b60405180910390fd5b60036000838152602001908152602001600020549050919050565b606060008273ffffffffffffffffffffffffffffffffffffffff1660001b905060006040518060400160405280601081526020017f303132333435363738396162636465660000000000000000000000000000000081525090506000602a67ffffffffffffffff8111156110d8576110d7611b42565b5b6040519080825280601f01601f19166020018201604052801561110a5781602001600182028036833780820191505090505b5090507f30000000000000000000000000000000000000000000000000000000000000008160008151811061114257611141612553565b5b60200101907effffffffffffffffffffffffffffffffffffffffffffffffffffffffffffff1916908160001a9053507f7800000000000000000000000000000000000000000000000000000000000000816001815181106111a6576111a5612553565b5b60200101907effffffffffffffffffffffffffffffffffffffffffffffffffffffffffffff1916908160001a90535060005b60148110156113605782600485600c846111f29190612499565b6020811061120357611202612553565b5b1a60f81b7effffffffffffffffffffffffffffffffffffffffffffffffffffffffffffff1916901c60f81c60ff168151811061124257611241612553565b5b602001015160f81c60f81b8260028361125b9190612712565b60026112679190612499565b8151811061127857611277612553565b5b60200101907effffffffffffffffffffffffffffffffffffffffffffffffffffffffffffff1916908160001a90535082600f60f81b85600c846112bb9190612499565b602081106112cc576112cb612553565b5b1a60f81b1660f81c60ff16815181106112e8576112e7612553565b5b602001015160f81c60f81b826002836113019190612712565b600361130d9190612499565b8151811061131e5761131d612553565b5b60200101907effffffffffffffffffffffffffffffffffffffffffffffffffffffffffffff1916908160001a9053508080611358906121b0565b9150506111d8565b50809350505050919050565b6060600082036113b3576040518060400160405280600181526020017f300000000000000000000000000000000000000000000000000000000000000081525090506114c7565b600082905060005b600082146113e55780806113ce906121b0565b915050600a826113de919061279b565b91506113bb565b60008167ffffffffffffffff81111561140157611400611b42565b5b6040519080825280601f01601f1916602001820160405280156114335781602001600182028036833780820191505090505b5090505b600085146114c05760018261144c919061251f565b9150600a8561145b91906127cc565b60306114679190612499565b60f81b81838151811061147d5761147c612553565b5b60200101907effffffffffffffffffffffffffffffffffffffffffffffffffffffffffffff1916908160001a905350600a856114b9919061279b565b9450611437565b8093505050505b919050565b60005b6005805490508110156115305760026000600583815481106114f4576114f3612553565b5b9060005260206000200154815260200190815260200160002060006101000a81549060ff02191690558080611528906121b0565b9150506114cf565b506005600061153f919061160f565b565b828054828255906000526020600020908101928215611590579160200282015b8281111561158f57825182908051906020019061157f929190611630565b5091602001919060010190611561565b5b50905061159d91906116b6565b5090565b8280548282559060005260206000209081019282156115dd579160200282015b828111156115dc5782518255916020019190600101906115c1565b5b5090506115ea91906116da565b5090565b60405180606001604052806060815260200160608152602001600081525090565b508054600082559060005260206000209081019061162d91906116f7565b50565b82805461163c90611fa0565b90600052602060002090601f01602090048101928261165e57600085556116a5565b82601f1061167757805160ff19168380011785556116a5565b828001600101855582156116a5579182015b828111156116a4578251825591602001919060010190611689565b5b5090506116b291906116da565b5090565b5b808211156116d657600081816116cd9190611714565b506001016116b7565b5090565b5b808211156116f35760008160009055506001016116db565b5090565b5b808211156117105760008160009055506001016116f8565b5090565b50805461172090611fa0565b6000825580601f106117325750611751565b601f01602090049060005260206000209081019061175091906116da565b5b50565b600081519050919050565b600082825260208201905092915050565b6000819050602082019050919050565b600081519050919050565b600082825260208201905092915050565b60005b838110156117ba57808201518184015260208101905061179f565b838111156117c9576000848401525b50505050565b6000601f19601f8301169050919050565b60006117eb82611780565b6117f5818561178b565b935061180581856020860161179c565b61180e816117cf565b840191505092915050565b600061182583836117e0565b905092915050565b6000602082019050919050565b600061184582611754565b61184f818561175f565b93508360208202850161186185611770565b8060005b8581101561189d578484038952815161187e8582611819565b94506118898361182d565b925060208a01995050600181019050611865565b50829750879550505050505092915050565b600060208201905081810360008301526118c9818461183a565b905092915050565b6000604051905090565b600080fd5b600080fd5b6000819050919050565b6118f8816118e5565b811461190357600080fd5b50565b600081359050611915816118ef565b92915050565b600060208284031215611931576119306118db565b5b600061193f84828501611906565b91505092915050565b60008115159050919050565b61195d81611948565b82525050565b60006020820190506119786000830184611954565b92915050565b6000819050919050565b6119918161197e565b82525050565b60006020820190506119ac6000830184611988565b92915050565b6119bb8161197e565b81146119c657600080fd5b50565b6000813590506119d8816119b2565b92915050565b6000602082840312156119f4576119f36118db565b5b6000611a02848285016119c9565b91505092915050565b600082825260208201905092915050565b6000611a2782611780565b611a318185611a0b565b9350611a4181856020860161179c565b611a4a816117cf565b840191505092915050565b60006020820190508181036000830152611a6f8184611a1c565b905092915050565b611a80816118e5565b82525050565b6000602082019050611a9b6000830184611a77565b92915050565b600073ffffffffffffffffffffffffffffffffffffffff82169050919050565b6000611acc82611aa1565b9050919050565b611adc81611ac1565b82525050565b6000602082019050611af76000830184611ad3565b92915050565b60008060408385031215611b1457611b136118db565b5b6000611b2285828601611906565b9250506020611b33858286016119c9565b9150509250929050565b600080fd5b7f4e487b7100000000000000000000000000000000000000000000000000000000600052604160045260246000fd5b611b7a826117cf565b810181811067ffffffffffffffff82111715611b9957611b98611b42565b5b80604052505050565b6000611bac6118d1565b9050611bb88282611b71565b919050565b600067ffffffffffffffff821115611bd857611bd7611b42565b5b602082029050602081019050919050565b600080fd5b600080fd5b600067ffffffffffffffff821115611c0e57611c0d611b42565b5b611c17826117cf565b9050602081019050919050565b82818337600083830152505050565b6000611c46611c4184611bf3565b611ba2565b905082815260208101848484011115611c6257611c61611bee565b5b611c6d848285611c24565b509392505050565b600082601f830112611c8a57611c89611b3d565b5b8135611c9a848260208601611c33565b91505092915050565b6000611cb6611cb184611bbd565b611ba2565b90508083825260208201905060208402830185811115611cd957611cd8611be9565b5b835b81811015611d2057803567ffffffffffffffff811115611cfe57611cfd611b3d565b5b808601611d0b8982611c75565b85526020850194505050602081019050611cdb565b5050509392505050565b600082601f830112611d3f57611d3e611b3d565b5b8135611d4f848260208601611ca3565b91505092915050565b60008060408385031215611d6f57611d6e6118db565b5b600083013567ffffffffffffffff811115611d8d57611d8c6118e0565b5b611d9985828601611d2a565b9250506020611daa858286016119c9565b9150509250929050565b600082825260208201905092915050565b6000611dd082611754565b611dda8185611db4565b935083602082028501611dec85611770565b8060005b85811015611e285784840389528151611e098582611819565b9450611e148361182d565b925060208a01995050600181019050611df0565b50829750879550505050505092915050565b600081519050919050565b600082825260208201905092915050565b6000819050602082019050919050565b611e6f8161197e565b82525050565b6000611e818383611e66565b60208301905092915050565b6000602082019050919050565b6000611ea582611e3a565b611eaf8185611e45565b9350611eba83611e56565b8060005b83811015611eeb578151611ed28882611e75565b9750611edd83611e8d565b925050600181019050611ebe565b5085935050505092915050565b60006060830160008301518482036000860152611f158282611dc5565b91505060208301518482036020860152611f2f8282611e9a565b9150506040830151611f446040860182611e66565b508091505092915050565b60006020820190508181036000830152611f698184611ef8565b905092915050565b7f4e487b7100000000000000000000000000000000000000000000000000000000600052602260045260246000fd5b60006002820490506001821680611fb857607f821691505b602082108103611fcb57611fca611f71565b5b50919050565b7f566f74696e67206973206e6f7420616374697665000000000000000000000000600082015250565b6000612007601483611a0b565b915061201282611fd1565b602082019050919050565b6000602082019050818103600083015261203681611ffa565b9050919050565b7f566f74696e6720706572696f642068617320656e646564000000000000000000600082015250565b6000612073601783611a0b565b915061207e8261203d565b602082019050919050565b600060208201905081810360008301526120a281612066565b9050919050565b7f596f75206861766520616c726561647920766f74656400000000000000000000600082015250565b60006120df601683611a0b565b91506120ea826120a9565b602082019050919050565b6000602082019050818103600083015261210e816120d2565b9050919050565b7f496e76616c69642063616e64696461746520696e646578000000000000000000600082015250565b600061214b601783611a0b565b915061215682612115565b602082019050919050565b6000602082019050818103600083015261217a8161213e565b9050919050565b7f4e487b7100000000000000000000000000000000000000000000000000000000600052601160045260246000fd5b60006121bb8261197e565b91507fffffffffffffffffffffffffffffffffffffffffffffffffffffffffffffffff82036121ed576121ec612181565b5b600182019050919050565b600060408201905061220d6000830185611ad3565b61221a6020830184611988565b9392505050565b600081905092915050565b7f566f746572200000000000000000000000000000000000000000000000000000600082015250565b6000612262600683612221565b915061226d8261222c565b600682019050919050565b600061228382611780565b61228d8185612221565b935061229d81856020860161179c565b80840191505092915050565b7f20766f74656420666f722063616e646964617465200000000000000000000000600082015250565b60006122df601583612221565b91506122ea826122a9565b601582019050919050565b600061230082612255565b915061230c8285612278565b9150612317826122d2565b91506123238284612278565b91508190509392505050565b7f4f6e6c7920746865206f776e65722063616e20706572666f726d20746869732060008201527f616374696f6e0000000000000000000000000000000000000000000000000000602082015250565b600061238b602683611a0b565b91506123968261232f565b604082019050919050565b600060208201905081810360008301526123ba8161237e565b9050919050565b7f566f74696e6720697320616c7265616479206163746976650000000000000000600082015250565b60006123f7601883611a0b565b9150612402826123c1565b602082019050919050565b60006020820190508181036000830152612426816123ea565b9050919050565b7f5374617274696e672061206e657720766f74696e672073657373696f6e000000600082015250565b6000612463601d83611a0b565b915061246e8261242d565b602082019050919050565b6000602082019050818103600083015261249281612456565b9050919050565b60006124a48261197e565b91506124af8361197e565b9250827fffffffffffffffffffffffffffffffffffffffffffffffffffffffffffffffff038211156124e4576124e3612181565b5b828201905092915050565b60006040820190508181036000830152612509818561183a565b90506125186020830184611988565b9392505050565b600061252a8261197e565b91506125358361197e565b92508282101561254857612547612181565b5b828203905092915050565b7f4e487b7100000000000000000000000000000000000000000000000000000000600052603260045260246000fd5b7f566f74696e672073657373696f6e2073746f7070656400000000000000000000600082015250565b60006125b8601683611a0b565b91506125c382612582565b602082019050919050565b600060208201905081810360008301526125e7816125ab565b9050919050565b7f496e76616c69642073657373696f6e20696e6465780000000000000000000000600082015250565b6000612624601583611a0b565b915061262f826125ee565b602082019050919050565b6000602082019050818103600083015261265381612617565b9050919050565b7f566f74696e67206973207374696c6c206163746976652e20526573756c74732060008201527f63616e206f6e6c7920626520616363657373656420616674657220766f74696e60208201527f6720656e64732e00000000000000000000000000000000000000000000000000604082015250565b60006126dc604783611a0b565b91506126e78261265a565b606082019050919050565b6000602082019050818103600083015261270b816126cf565b9050919050565b600061271d8261197e565b91506127288361197e565b9250817fffffffffffffffffffffffffffffffffffffffffffffffffffffffffffffffff048311821515161561276157612760612181565b5b828202905092915050565b7f4e487b7100000000000000000000000000000000000000000000000000000000600052601260045260246000fd5b60006127a68261197e565b91506127b18361197e565b9250826127c1576127c061276c565b5b828204905092915050565b60006127d78261197e565b91506127e28361197e565b9250826127f2576127f161276c565b5b82820690509291505056fea26469706673582212203f17dfb99fac536948a64ec66c13d674c1b4ce21213952385751856076e34a3164736f6c634300080d0033",
  "immutableReferences": {},
  "source": "// SPDX-License-Identifier: MIT\r\npragma solidity ^0.8.0;\r\n\r\ncontract Voting {\r\n    // State variables\r\n    address public owner; // Owner of the contract\r\n    bool public isVotingActive; // Voting status\r\n    uint public votingEndTime; // Voting end timestamp\r\n    mapping(bytes32 => bool) public hasVoted; // Track whether a voterId has voted\r\n    mapping(uint => uint) public votesReceived; // Track votes for each candidate\r\n    string[] public candidates; // List of candidates\r\n    bytes32[] public voterIds; // Array to track all voters (voterId)\r\n\r\n    // Structure to store past voting session results\r\n    struct VotingSession {\r\n        string[] candidates; // Candidates for the session\r\n        uint[] sessionVotes;  // Vote counts for each candidate\r\n        uint endTime;         // Voting session end timestamp\r\n    }\r\n\r\n    // Array to store voting session history\r\n    VotingSession[] public votingHistory;\r\n\r\n    uint public constant DEFAULT_VOTING_DURATION = 1 days; // Default voting duration\r\n\r\n    // Events\r\n    event VotingStarted(string[] candidates, uint duration);\r\n    event VotingStopped();\r\n    event Voted(address voter, uint candidateIndex);\r\n    event Debug(string message); // Added event for debugging\r\n\r\n    // Constructor\r\n    constructor(string[] memory _candidateNames) {\r\n        require(_candidateNames.length > 0, \"Candidates array cannot be empty\");\r\n\r\n        owner = msg.sender;\r\n        candidates = _candidateNames;\r\n        votingEndTime = block.timestamp + DEFAULT_VOTING_DURATION;\r\n        isVotingActive = true;\r\n\r\n        emit Debug(\"Voting contract deployed with candidates\");\r\n    }\r\n\r\n    // Modifiers\r\n    modifier onlyOwner() {\r\n        require(msg.sender == owner, \"Only the owner can perform this action\");\r\n        _;\r\n    }\r\n\r\n    modifier votingActive() {\r\n        require(isVotingActive, \"Voting is not active\");\r\n        require(block.timestamp <= votingEndTime, \"Voting period has ended\");\r\n        _;\r\n    }\r\n\r\n    // Start a new voting session\r\n    function startVoting(\r\n        string[] memory _candidateNames,\r\n        uint _durationInSeconds\r\n    ) external onlyOwner {\r\n        require(!isVotingActive, \"Voting is already active\");\r\n\r\n        emit Debug(\"Starting a new voting session\");\r\n\r\n        // Reset votes for all candidates\r\n        for (uint i = 0; i < candidates.length; i++) {\r\n            votesReceived[i] = 0;\r\n        }\r\n\r\n        // Set new candidates\r\n        candidates = _candidateNames;\r\n\r\n        // Set voting duration\r\n        votingEndTime = block.timestamp + _durationInSeconds;\r\n\r\n        // Activate voting\r\n        isVotingActive = true;\r\n\r\n        // Clear previous voting history before starting a new session\r\n        clearVotingHistory();\r\n\r\n        emit VotingStarted(_candidateNames, _durationInSeconds);\r\n    }\r\n\r\n    // Stop the voting session manually\r\n    function stopVoting() external onlyOwner {\r\n        require(isVotingActive, \"Voting is not active\");\r\n        isVotingActive = false;\r\n\r\n        // Store results in the voting history\r\n        uint[] memory currentVotes = new uint[](candidates.length);\r\n        for (uint i = 0; i < candidates.length; i++) {\r\n            currentVotes[i] = votesReceived[i];\r\n        }\r\n\r\n        // Store the session results\r\n        VotingSession memory newSession = VotingSession({\r\n            candidates: candidates,\r\n            sessionVotes: currentVotes,\r\n            endTime: block.timestamp\r\n        });\r\n        votingHistory.push(newSession);\r\n\r\n        // Clear voting history for the next session\r\n        clearVotingHistory();\r\n\r\n        emit VotingStopped();\r\n        emit Debug(\"Voting session stopped\");\r\n    }\r\n\r\n    // Vote for a candidate\r\n    function vote(bytes32 voterId, uint _candidateIndex) external votingActive {\r\n        require(!hasVoted[voterId], \"You have already voted\"); // Check voterId, not msg.sender\r\n        require(_candidateIndex < candidates.length, \"Invalid candidate index\");\r\n\r\n        votesReceived[_candidateIndex]++;\r\n        hasVoted[voterId] = true; // Mark voterId as having voted\r\n        voterIds.push(voterId); // Store voterId in the array\r\n\r\n        emit Voted(msg.sender, _candidateIndex); // Log voter address for reference\r\n        emit Debug(\r\n            string(\r\n                abi.encodePacked(\r\n                    \"Voter \",\r\n                    addressToString(msg.sender),\r\n                    \" voted for candidate \",\r\n                    uintToString(_candidateIndex)\r\n                )\r\n            )\r\n        );\r\n    }\r\n\r\n    // Clear the hasVoted mapping to reset previous voting records\r\n    function clearVotingHistory() internal {\r\n        // Iterate over the array of voter IDs and clear their voting status\r\n        for (uint i = 0; i < voterIds.length; i++) {\r\n            delete hasVoted[voterIds[i]];\r\n        }\r\n        // Optionally reset the voterIds array if needed\r\n        delete voterIds;\r\n    }\r\n\r\n    // Get the total votes for a candidate (only after voting is stopped)\r\n    function getVotes(uint _candidateIndex) external view returns (uint) {\r\n        require(!isVotingActive, \"Voting is still active. Results can only be accessed after voting ends.\");\r\n        require(_candidateIndex < candidates.length, \"Invalid candidate index\");\r\n        return votesReceived[_candidateIndex];\r\n    }\r\n\r\n    // Get the remaining time until voting ends\r\n    function getTimeRemaining() external view returns (uint) {\r\n        if (block.timestamp > votingEndTime) {\r\n            return 0; // Voting has ended\r\n        }\r\n        return votingEndTime - block.timestamp;\r\n    }\r\n\r\n    // Get voting status (active or not)\r\n    function isVotingActiveStatus() external view returns (bool) {\r\n        return isVotingActive && block.timestamp < votingEndTime;\r\n    }\r\n\r\n    // Get the list of candidates\r\n    function getCandidates() external view returns (string[] memory) {\r\n        return candidates;\r\n    }\r\n\r\n    // Get session results by session index\r\n    function getVotingSessionResults(uint sessionIndex) external view returns (VotingSession memory) {\r\n        require(sessionIndex < votingHistory.length, \"Invalid session index\");\r\n        return votingHistory[sessionIndex];\r\n    }\r\n\r\n    function votingHistoryLength() external view returns (uint) {\r\n    return votingHistory.length;\r\n}\r\n\r\n\r\n    // Utility function to convert address to string for logging purposes\r\n    function addressToString(address _addr) internal pure returns (string memory) {\r\n        bytes32 value = bytes32(uint256(uint160(_addr)));\r\n        bytes memory alphabet = \"0123456789abcdef\";\r\n        bytes memory str = new bytes(42);\r\n\r\n        str[0] = '0';\r\n        str[1] = 'x';\r\n\r\n        for (uint i = 0; i < 20; i++) {\r\n            str[2 + i * 2] = alphabet[uint8(value[i + 12] >> 4)];\r\n            str[3 + i * 2] = alphabet[uint8(value[i + 12] & 0x0f)];\r\n        }\r\n\r\n        return string(str);\r\n    }\r\n\r\n    // Utility function to convert uint to string for logging purposes\r\n    function uintToString(uint _value) internal pure returns (string memory) {\r\n        if (_value == 0) {\r\n            return \"0\";\r\n        }\r\n\r\n        uint temp = _value;\r\n        uint length;\r\n        while (temp != 0) {\r\n            length++;\r\n            temp /= 10;\r\n        }\r\n\r\n        bytes memory str = new bytes(length);\r\n        while (_value != 0) {\r\n            length -= 1;\r\n            str[length] = bytes1(uint8(48 + _value % 10));\r\n            _value /= 10;\r\n        }\r\n\r\n        return string(str);\r\n    }\r\n}\r\n",
  "sourcePath": "D:\\MERN\\Voting\\backend\\contracts\\Voting.sol",
  "compiler": {
    "name": "solc",
    "version": "0.8.13+commit.abaa5c0e.Emscripten.clang"
  },
  "schemaVersion": "3.4.16",
  "updatedAt": "2025-01-13T05:43:07.467Z",
  "networkType": "ethereum",
  "devdoc": {
    "kind": "dev",
    "methods": {},
    "version": 1
  },
  "userdoc": {
    "kind": "user",
    "methods": {},
    "version": 1
  }
}