{
  "contractName": "Voting",
  "abi": [
    {
      "inputs": [
        {
          "internalType": "string[]",
          "name": "_candidateNames",
          "type": "string[]"
        }
      ],
      "stateMutability": "nonpayable",
      "type": "constructor"
    },
    {
      "anonymous": false,
      "inputs": [
        {
          "indexed": false,
          "internalType": "string",
          "name": "message",
          "type": "string"
        }
      ],
      "name": "Debug",
      "type": "event"
    },
    {
      "anonymous": false,
      "inputs": [
        {
          "indexed": false,
          "internalType": "bytes32",
          "name": "voterId",
          "type": "bytes32"
        },
        {
          "indexed": false,
          "internalType": "uint256",
          "name": "candidateIndex",
          "type": "uint256"
        }
      ],
      "name": "Voted",
      "type": "event"
    },
    {
      "anonymous": false,
      "inputs": [
        {
          "indexed": false,
          "internalType": "string[]",
          "name": "candidates",
          "type": "string[]"
        },
        {
          "indexed": false,
          "internalType": "uint256",
          "name": "duration",
          "type": "uint256"
        }
      ],
      "name": "VotingStarted",
      "type": "event"
    },
    {
      "anonymous": false,
      "inputs": [],
      "name": "VotingStopped",
      "type": "event"
    },
    {
      "inputs": [],
      "name": "DEFAULT_VOTING_DURATION",
      "outputs": [
        {
          "internalType": "uint256",
          "name": "",
          "type": "uint256"
        }
      ],
      "stateMutability": "view",
      "type": "function",
      "constant": true
    },
    {
      "inputs": [
        {
          "internalType": "uint256",
          "name": "",
          "type": "uint256"
        }
      ],
      "name": "candidates",
      "outputs": [
        {
          "internalType": "string",
          "name": "",
          "type": "string"
        }
      ],
      "stateMutability": "view",
      "type": "function",
      "constant": true
    },
    {
      "inputs": [
        {
          "internalType": "bytes32",
          "name": "",
          "type": "bytes32"
        }
      ],
      "name": "hasVoted",
      "outputs": [
        {
          "internalType": "bool",
          "name": "",
          "type": "bool"
        }
      ],
      "stateMutability": "view",
      "type": "function",
      "constant": true
    },
    {
      "inputs": [],
      "name": "isVotingActive",
      "outputs": [
        {
          "internalType": "bool",
          "name": "",
          "type": "bool"
        }
      ],
      "stateMutability": "view",
      "type": "function",
      "constant": true
    },
    {
      "inputs": [],
      "name": "owner",
      "outputs": [
        {
          "internalType": "address",
          "name": "",
          "type": "address"
        }
      ],
      "stateMutability": "view",
      "type": "function",
      "constant": true
    },
    {
      "inputs": [],
      "name": "startTime",
      "outputs": [
        {
          "internalType": "uint256",
          "name": "",
          "type": "uint256"
        }
      ],
      "stateMutability": "view",
      "type": "function",
      "constant": true
    },
    {
      "inputs": [
        {
          "internalType": "uint256",
          "name": "",
          "type": "uint256"
        }
      ],
      "name": "voterIds",
      "outputs": [
        {
          "internalType": "bytes32",
          "name": "",
          "type": "bytes32"
        }
      ],
      "stateMutability": "view",
      "type": "function",
      "constant": true
    },
    {
      "inputs": [
        {
          "internalType": "uint256",
          "name": "",
          "type": "uint256"
        }
      ],
      "name": "votesReceived",
      "outputs": [
        {
          "internalType": "uint256",
          "name": "",
          "type": "uint256"
        }
      ],
      "stateMutability": "view",
      "type": "function",
      "constant": true
    },
    {
      "inputs": [],
      "name": "votingDuration",
      "outputs": [
        {
          "internalType": "uint256",
          "name": "",
          "type": "uint256"
        }
      ],
      "stateMutability": "view",
      "type": "function",
      "constant": true
    },
    {
      "inputs": [],
      "name": "votingEndTime",
      "outputs": [
        {
          "internalType": "uint256",
          "name": "",
          "type": "uint256"
        }
      ],
      "stateMutability": "view",
      "type": "function",
      "constant": true
    },
    {
      "inputs": [
        {
          "internalType": "uint256",
          "name": "",
          "type": "uint256"
        }
      ],
      "name": "votingHistory",
      "outputs": [
        {
          "internalType": "uint256",
          "name": "endTime",
          "type": "uint256"
        }
      ],
      "stateMutability": "view",
      "type": "function",
      "constant": true
    },
    {
      "inputs": [
        {
          "internalType": "string[]",
          "name": "_candidateNames",
          "type": "string[]"
        },
        {
          "internalType": "uint256",
          "name": "_durationInSeconds",
          "type": "uint256"
        }
      ],
      "name": "startVoting",
      "outputs": [],
      "stateMutability": "nonpayable",
      "type": "function"
    },
    {
      "inputs": [],
      "name": "stopVoting",
      "outputs": [],
      "stateMutability": "nonpayable",
      "type": "function"
    },
    {
      "inputs": [
        {
          "internalType": "bytes32",
          "name": "voterId",
          "type": "bytes32"
        },
        {
          "internalType": "uint256",
          "name": "_candidateIndex",
          "type": "uint256"
        }
      ],
      "name": "vote",
      "outputs": [],
      "stateMutability": "nonpayable",
      "type": "function"
    },
    {
      "inputs": [
        {
          "internalType": "uint256",
          "name": "_candidateIndex",
          "type": "uint256"
        }
      ],
      "name": "getVotes",
      "outputs": [
        {
          "internalType": "uint256",
          "name": "",
          "type": "uint256"
        }
      ],
      "stateMutability": "view",
      "type": "function",
      "constant": true
    },
    {
      "inputs": [],
      "name": "getTimeRemaining",
      "outputs": [
        {
          "internalType": "uint256",
          "name": "",
          "type": "uint256"
        }
      ],
      "stateMutability": "view",
      "type": "function",
      "constant": true
    },
    {
      "inputs": [],
      "name": "isVotingActiveStatus",
      "outputs": [
        {
          "internalType": "bool",
          "name": "",
          "type": "bool"
        }
      ],
      "stateMutability": "view",
      "type": "function",
      "constant": true
    },
    {
      "inputs": [],
      "name": "getCandidates",
      "outputs": [
        {
          "internalType": "string[]",
          "name": "",
          "type": "string[]"
        }
      ],
      "stateMutability": "view",
      "type": "function",
      "constant": true
    },
    {
      "inputs": [
        {
          "internalType": "uint256",
          "name": "sessionIndex",
          "type": "uint256"
        }
      ],
      "name": "getVotingSessionResults",
      "outputs": [
        {
          "components": [
            {
              "internalType": "string[]",
              "name": "candidates",
              "type": "string[]"
            },
            {
              "internalType": "uint256[]",
              "name": "sessionVotes",
              "type": "uint256[]"
            },
            {
              "internalType": "uint256",
              "name": "endTime",
              "type": "uint256"
            }
          ],
          "internalType": "struct Voting.VotingSession",
          "name": "",
          "type": "tuple"
        }
      ],
      "stateMutability": "view",
      "type": "function",
      "constant": true
    },
    {
      "inputs": [],
      "name": "votingHistoryLength",
      "outputs": [
        {
          "internalType": "uint256",
          "name": "",
          "type": "uint256"
        }
      ],
      "stateMutability": "view",
      "type": "function",
      "constant": true
    }
  ],
  "bytecode": "0x60806040523480156200001157600080fd5b50604051620029c0380380620029c0833981810160405281019062000037919062000575565b60008151116200007e576040517f08c379a0000000000000000000000000000000000000000000000000000000008152600401620000759062000627565b60405180910390fd5b336000806101000a81548173ffffffffffffffffffffffffffffffffffffffff021916908373ffffffffffffffffffffffffffffffffffffffff1602179055508060069080519060200190620000d692919062000157565b50620151806003819055504260018190555060035442620000f8919062000682565b6002819055506001600060146101000a81548160ff0219169083151502179055507f7cdb51e9dbbc205231228146c3246e7f914aa6d4a33170e43ecc8e3593481d1a604051620001489062000755565b60405180910390a150620007db565b828054828255906000526020600020908101928215620001ab579160200282015b82811115620001aa57825182908051906020019062000199929190620001be565b509160200191906001019062000178565b5b509050620001ba91906200024f565b5090565b828054620001cc90620007a6565b90600052602060002090601f016020900481019282620001f057600085556200023c565b82601f106200020b57805160ff19168380011785556200023c565b828001600101855582156200023c579182015b828111156200023b5782518255916020019190600101906200021e565b5b5090506200024b919062000277565b5090565b5b8082111562000273576000818162000269919062000296565b5060010162000250565b5090565b5b808211156200029257600081600090555060010162000278565b5090565b508054620002a490620007a6565b6000825580601f10620002b85750620002d9565b601f016020900490600052602060002090810190620002d8919062000277565b5b50565b6000604051905090565b600080fd5b600080fd5b600080fd5b6000601f19601f8301169050919050565b7f4e487b7100000000000000000000000000000000000000000000000000000000600052604160045260246000fd5b6200034082620002f5565b810181811067ffffffffffffffff8211171562000362576200036162000306565b5b80604052505050565b600062000377620002dc565b905062000385828262000335565b919050565b600067ffffffffffffffff821115620003a857620003a762000306565b5b602082029050602081019050919050565b600080fd5b600080fd5b600067ffffffffffffffff821115620003e157620003e062000306565b5b620003ec82620002f5565b9050602081019050919050565b60005b8381101562000419578082015181840152602081019050620003fc565b8381111562000429576000848401525b50505050565b6000620004466200044084620003c3565b6200036b565b905082815260208101848484011115620004655762000464620003be565b5b62000472848285620003f9565b509392505050565b600082601f830112620004925762000491620002f0565b5b8151620004a48482602086016200042f565b91505092915050565b6000620004c4620004be846200038a565b6200036b565b90508083825260208201905060208402830185811115620004ea57620004e9620003b9565b5b835b818110156200053857805167ffffffffffffffff811115620005135762000512620002f0565b5b8086016200052289826200047a565b85526020850194505050602081019050620004ec565b5050509392505050565b600082601f8301126200055a5762000559620002f0565b5b81516200056c848260208601620004ad565b91505092915050565b6000602082840312156200058e576200058d620002e6565b5b600082015167ffffffffffffffff811115620005af57620005ae620002eb565b5b620005bd8482850162000542565b91505092915050565b600082825260208201905092915050565b7f43616e646964617465732061727261792063616e6e6f7420626520656d707479600082015250565b60006200060f602083620005c6565b91506200061c82620005d7565b602082019050919050565b60006020820190508181036000830152620006428162000600565b9050919050565b6000819050919050565b7f4e487b7100000000000000000000000000000000000000000000000000000000600052601160045260246000fd5b60006200068f8262000649565b91506200069c8362000649565b9250827fffffffffffffffffffffffffffffffffffffffffffffffffffffffffffffffff03821115620006d457620006d362000653565b5b828201905092915050565b7f566f74696e6720636f6e7472616374206465706c6f796564207769746820636160008201527f6e64696461746573000000000000000000000000000000000000000000000000602082015250565b60006200073d602883620005c6565b91506200074a82620006df565b604082019050919050565b6000602082019050818103600083015262000770816200072e565b9050919050565b7f4e487b7100000000000000000000000000000000000000000000000000000000600052602260045260246000fd5b60006002820490506001821680620007bf57607f821691505b602082108103620007d557620007d462000777565b5b50919050565b6121d580620007eb6000396000f3fe608060405234801561001057600080fd5b506004361061012c5760003560e01c8063812bb1c3116100ad578063dac6270d11610071578063dac6270d14610337578063f3084a6314610355578063fab2f86b14610385578063fc3407b11461038f578063ff981099146103bf5761012c565b8063812bb1c3146102935780638da5cb5b146102c35780639ef1204c146102e1578063b009c8f2146102fd578063bc0a2ab31461031b5761012c565b806346a0e25b116100f457806346a0e25b146101eb57806347cf6f761461021b5780636da5bd941461023957806378e97925146102575780637ad5574d146102755761012c565b806306a49fce14610131578063132002fc1461014f5780631b4613cb1461016d5780631ea736e01461019d5780633477ee2e146101bb575b600080fd5b6101396103ef565b604051610146919061144a565b60405180910390f35b6101576104c8565b6040516101649190611485565b60405180910390f35b610187600480360381019061018291906114ea565b6104ce565b6040516101949190611532565b60405180910390f35b6101a56104ee565b6040516101b29190611485565b60405180910390f35b6101d560048036038101906101d09190611579565b6104f4565b6040516101e291906115f0565b60405180910390f35b61020560048036038101906102009190611579565b6105a0565b6040516102129190611485565b60405180910390f35b6102236105ce565b6040516102309190611532565b60405180910390f35b6102416105e1565b60405161024e9190611532565b60405180910390f35b61025f610604565b60405161026c9190611485565b60405180910390f35b61027d61060a565b60405161028a9190611485565b60405180910390f35b6102ad60048036038101906102a89190611579565b610611565b6040516102ba9190611621565b60405180910390f35b6102cb610635565b6040516102d8919061167d565b60405180910390f35b6102fb60048036038101906102f69190611698565b610659565b005b610305610850565b6040516103129190611485565b60405180910390f35b610335600480360381019061033091906118f3565b61085d565b005b61033f610a46565b60405161034c9190611485565b60405180910390f35b61036f600480360381019061036a9190611579565b610a6f565b60405161037c9190611485565b60405180910390f35b61038d610a87565b005b6103a960048036038101906103a49190611579565b610df6565b6040516103b69190611aea565b60405180910390f35b6103d960048036038101906103d49190611579565b610fb4565b6040516103e69190611485565b60405180910390f35b60606006805480602002602001604051908101604052809291908181526020016000905b828210156104bf57838290600052602060002001805461043290611b3b565b80601f016020809104026020016040519081016040528092919081815260200182805461045e90611b3b565b80156104ab5780601f10610480576101008083540402835291602001916104ab565b820191906000526020600020905b81548152906001019060200180831161048e57829003601f168201915b505050505081526020019060010190610413565b50505050905090565b60035481565b60046020528060005260406000206000915054906101000a900460ff1681565b60025481565b6006818154811061050457600080fd5b90600052602060002001600091509050805461051f90611b3b565b80601f016020809104026020016040519081016040528092919081815260200182805461054b90611b3b565b80156105985780601f1061056d57610100808354040283529160200191610598565b820191906000526020600020905b81548152906001019060200180831161057b57829003601f168201915b505050505081565b600881815481106105b057600080fd5b90600052602060002090600302016000915090508060020154905081565b600060149054906101000a900460ff1681565b60008060149054906101000a900460ff1680156105ff575060025442105b905090565b60015481565b6201518081565b6007818154811061062157600080fd5b906000526020600020016000915090505481565b60008054906101000a900473ffffffffffffffffffffffffffffffffffffffff1681565b600060149054906101000a900460ff166106a8576040517f08c379a000000000000000000000000000000000000000000000000000000000815260040161069f90611bb8565b60405180910390fd5b6002544211156106ed576040517f08c379a00000000000000000000000000000000000000000000000000000000081526004016106e490611c24565b60405180910390fd5b6004600083815260200190815260200160002060009054906101000a900460ff161561074e576040517f08c379a000000000000000000000000000000000000000000000000000000000815260040161074590611c90565b60405180910390fd5b6006805490508110610795576040517f08c379a000000000000000000000000000000000000000000000000000000000815260040161078c90611cfc565b60405180910390fd5b6005600082815260200190815260200160002060008154809291906107b990611d4b565b919050555060016004600084815260200190815260200160002060006101000a81548160ff02191690831515021790555060078290806001815401808255809150506001900390600052602060002001600090919091909150557f4c45019fcc4a4dac418427a5d21c1c9c46e29299a14c15e97f0d78ab087b34708282604051610844929190611d93565b60405180910390a15050565b6000600880549050905090565b60008054906101000a900473ffffffffffffffffffffffffffffffffffffffff1673ffffffffffffffffffffffffffffffffffffffff163373ffffffffffffffffffffffffffffffffffffffff16146108eb576040517f08c379a00000000000000000000000000000000000000000000000000000000081526004016108e290611e2e565b60405180910390fd5b600060149054906101000a900460ff161561093b576040517f08c379a000000000000000000000000000000000000000000000000000000000815260040161093290611e9a565b60405180910390fd5b7f7cdb51e9dbbc205231228146c3246e7f914aa6d4a33170e43ecc8e3593481d1a60405161096890611f06565b60405180910390a160005b6006805490508110156109ac576000600560008381526020019081526020016000208190555080806109a490611d4b565b915050610973565b5081600690805190602001906109c39291906110dc565b504260018190555080600381905550600354426109e09190611f26565b6002819055506001600060146101000a81548160ff021916908315150217905550610a09611067565b7fd719601b45ee6145e3a59d126748f189988ea54dfbd4f88df583000831fd18608282604051610a3a929190611f7c565b60405180910390a15050565b6000600254421115610a5b5760009050610a6c565b42600254610a699190611fac565b90505b90565b60056020528060005260406000206000915090505481565b60008054906101000a900473ffffffffffffffffffffffffffffffffffffffff1673ffffffffffffffffffffffffffffffffffffffff163373ffffffffffffffffffffffffffffffffffffffff1614610b15576040517f08c379a0000000000000000000000000000000000000000000000000000000008152600401610b0c90611e2e565b60405180910390fd5b600060149054906101000a900460ff16610b64576040517f08c379a0000000000000000000000000000000000000000000000000000000008152600401610b5b90611bb8565b60405180910390fd5b60008060146101000a81548160ff021916908315150217905550600060068054905067ffffffffffffffff811115610b9f57610b9e6116dd565b5b604051908082528060200260200182016040528015610bcd5781602001602082028036833780820191505090505b50905060005b600680549050811015610c26576005600082815260200190815260200160002054828281518110610c0757610c06611fe0565b5b6020026020010181815250508080610c1e90611d4b565b915050610bd3565b50600060405180606001604052806006805480602002602001604051908101604052809291908181526020016000905b82821015610d02578382906000526020600020018054610c7590611b3b565b80601f0160208091040260200160405190810160405280929190818152602001828054610ca190611b3b565b8015610cee5780601f10610cc357610100808354040283529160200191610cee565b820191906000526020600020905b815481529060010190602001808311610cd157829003601f168201915b505050505081526020019060010190610c56565b50505050815260200183815260200142815250905060088190806001815401808255809150506001900390600052602060002090600302016000909190919091506000820151816000019080519060200190610d5f9291906110dc565b506020820151816001019080519060200190610d7c92919061113c565b50604082015181600201555050610d91611067565b7f06511302781925bd62e07aef472aa49b9a036f97fcaf7bd34cabe20ac447679160405160405180910390a17f7cdb51e9dbbc205231228146c3246e7f914aa6d4a33170e43ecc8e3593481d1a604051610dea9061205b565b60405180910390a15050565b610dfe611189565b6008805490508210610e45576040517f08c379a0000000000000000000000000000000000000000000000000000000008152600401610e3c906120c7565b60405180910390fd5b60088281548110610e5957610e58611fe0565b5b906000526020600020906003020160405180606001604052908160008201805480602002602001604051908101604052809291908181526020016000905b82821015610f43578382906000526020600020018054610eb690611b3b565b80601f0160208091040260200160405190810160405280929190818152602001828054610ee290611b3b565b8015610f2f5780601f10610f0457610100808354040283529160200191610f2f565b820191906000526020600020905b815481529060010190602001808311610f1257829003601f168201915b505050505081526020019060010190610e97565b50505050815260200160018201805480602002602001604051908101604052809291908181526020018280548015610f9a57602002820191906000526020600020905b815481526020019060010190808311610f86575b505050505081526020016002820154815250509050919050565b60008060149054906101000a900460ff1615611005576040517f08c379a0000000000000000000000000000000000000000000000000000000008152600401610ffc9061217f565b60405180910390fd5b600680549050821061104c576040517f08c379a000000000000000000000000000000000000000000000000000000000815260040161104390611cfc565b60405180910390fd5b60056000838152602001908152602001600020549050919050565b60005b6007805490508110156110cb57600460006007838154811061108f5761108e611fe0565b5b9060005260206000200154815260200190815260200160002060006101000a81549060ff021916905580806110c390611d4b565b91505061106a565b50600760006110da91906111aa565b565b82805482825590600052602060002090810192821561112b579160200282015b8281111561112a57825182908051906020019061111a9291906111cb565b50916020019190600101906110fc565b5b5090506111389190611251565b5090565b828054828255906000526020600020908101928215611178579160200282015b8281111561117757825182559160200191906001019061115c565b5b5090506111859190611275565b5090565b60405180606001604052806060815260200160608152602001600081525090565b50805460008255906000526020600020908101906111c89190611292565b50565b8280546111d790611b3b565b90600052602060002090601f0160209004810192826111f95760008555611240565b82601f1061121257805160ff1916838001178555611240565b82800160010185558215611240579182015b8281111561123f578251825591602001919060010190611224565b5b50905061124d9190611275565b5090565b5b80821115611271576000818161126891906112af565b50600101611252565b5090565b5b8082111561128e576000816000905550600101611276565b5090565b5b808211156112ab576000816000905550600101611293565b5090565b5080546112bb90611b3b565b6000825580601f106112cd57506112ec565b601f0160209004906000526020600020908101906112eb9190611275565b5b50565b600081519050919050565b600082825260208201905092915050565b6000819050602082019050919050565b600081519050919050565b600082825260208201905092915050565b60005b8381101561135557808201518184015260208101905061133a565b83811115611364576000848401525b50505050565b6000601f19601f8301169050919050565b60006113868261131b565b6113908185611326565b93506113a0818560208601611337565b6113a98161136a565b840191505092915050565b60006113c0838361137b565b905092915050565b6000602082019050919050565b60006113e0826112ef565b6113ea81856112fa565b9350836020820285016113fc8561130b565b8060005b85811015611438578484038952815161141985826113b4565b9450611424836113c8565b925060208a01995050600181019050611400565b50829750879550505050505092915050565b6000602082019050818103600083015261146481846113d5565b905092915050565b6000819050919050565b61147f8161146c565b82525050565b600060208201905061149a6000830184611476565b92915050565b6000604051905090565b600080fd5b600080fd5b6000819050919050565b6114c7816114b4565b81146114d257600080fd5b50565b6000813590506114e4816114be565b92915050565b600060208284031215611500576114ff6114aa565b5b600061150e848285016114d5565b91505092915050565b60008115159050919050565b61152c81611517565b82525050565b60006020820190506115476000830184611523565b92915050565b6115568161146c565b811461156157600080fd5b50565b6000813590506115738161154d565b92915050565b60006020828403121561158f5761158e6114aa565b5b600061159d84828501611564565b91505092915050565b600082825260208201905092915050565b60006115c28261131b565b6115cc81856115a6565b93506115dc818560208601611337565b6115e58161136a565b840191505092915050565b6000602082019050818103600083015261160a81846115b7565b905092915050565b61161b816114b4565b82525050565b60006020820190506116366000830184611612565b92915050565b600073ffffffffffffffffffffffffffffffffffffffff82169050919050565b60006116678261163c565b9050919050565b6116778161165c565b82525050565b6000602082019050611692600083018461166e565b92915050565b600080604083850312156116af576116ae6114aa565b5b60006116bd858286016114d5565b92505060206116ce85828601611564565b9150509250929050565b600080fd5b7f4e487b7100000000000000000000000000000000000000000000000000000000600052604160045260246000fd5b6117158261136a565b810181811067ffffffffffffffff82111715611734576117336116dd565b5b80604052505050565b60006117476114a0565b9050611753828261170c565b919050565b600067ffffffffffffffff821115611773576117726116dd565b5b602082029050602081019050919050565b600080fd5b600080fd5b600067ffffffffffffffff8211156117a9576117a86116dd565b5b6117b28261136a565b9050602081019050919050565b82818337600083830152505050565b60006117e16117dc8461178e565b61173d565b9050828152602081018484840111156117fd576117fc611789565b5b6118088482856117bf565b509392505050565b600082601f830112611825576118246116d8565b5b81356118358482602086016117ce565b91505092915050565b600061185161184c84611758565b61173d565b9050808382526020820190506020840283018581111561187457611873611784565b5b835b818110156118bb57803567ffffffffffffffff811115611899576118986116d8565b5b8086016118a68982611810565b85526020850194505050602081019050611876565b5050509392505050565b600082601f8301126118da576118d96116d8565b5b81356118ea84826020860161183e565b91505092915050565b6000806040838503121561190a576119096114aa565b5b600083013567ffffffffffffffff811115611928576119276114af565b5b611934858286016118c5565b925050602061194585828601611564565b9150509250929050565b600082825260208201905092915050565b600061196b826112ef565b611975818561194f565b9350836020820285016119878561130b565b8060005b858110156119c357848403895281516119a485826113b4565b94506119af836113c8565b925060208a0199505060018101905061198b565b50829750879550505050505092915050565b600081519050919050565b600082825260208201905092915050565b6000819050602082019050919050565b611a0a8161146c565b82525050565b6000611a1c8383611a01565b60208301905092915050565b6000602082019050919050565b6000611a40826119d5565b611a4a81856119e0565b9350611a55836119f1565b8060005b83811015611a86578151611a6d8882611a10565b9750611a7883611a28565b925050600181019050611a59565b5085935050505092915050565b60006060830160008301518482036000860152611ab08282611960565b91505060208301518482036020860152611aca8282611a35565b9150506040830151611adf6040860182611a01565b508091505092915050565b60006020820190508181036000830152611b048184611a93565b905092915050565b7f4e487b7100000000000000000000000000000000000000000000000000000000600052602260045260246000fd5b60006002820490506001821680611b5357607f821691505b602082108103611b6657611b65611b0c565b5b50919050565b7f566f74696e67206973206e6f7420616374697665000000000000000000000000600082015250565b6000611ba26014836115a6565b9150611bad82611b6c565b602082019050919050565b60006020820190508181036000830152611bd181611b95565b9050919050565b7f566f74696e6720706572696f642068617320656e646564000000000000000000600082015250565b6000611c0e6017836115a6565b9150611c1982611bd8565b602082019050919050565b60006020820190508181036000830152611c3d81611c01565b9050919050565b7f596f75206861766520616c726561647920766f74656400000000000000000000600082015250565b6000611c7a6016836115a6565b9150611c8582611c44565b602082019050919050565b60006020820190508181036000830152611ca981611c6d565b9050919050565b7f496e76616c69642063616e64696461746520696e646578000000000000000000600082015250565b6000611ce66017836115a6565b9150611cf182611cb0565b602082019050919050565b60006020820190508181036000830152611d1581611cd9565b9050919050565b7f4e487b7100000000000000000000000000000000000000000000000000000000600052601160045260246000fd5b6000611d568261146c565b91507fffffffffffffffffffffffffffffffffffffffffffffffffffffffffffffffff8203611d8857611d87611d1c565b5b600182019050919050565b6000604082019050611da86000830185611612565b611db56020830184611476565b9392505050565b7f4f6e6c7920746865206f776e65722063616e20706572666f726d20746869732060008201527f616374696f6e0000000000000000000000000000000000000000000000000000602082015250565b6000611e186026836115a6565b9150611e2382611dbc565b604082019050919050565b60006020820190508181036000830152611e4781611e0b565b9050919050565b7f566f74696e6720697320616c7265616479206163746976650000000000000000600082015250565b6000611e846018836115a6565b9150611e8f82611e4e565b602082019050919050565b60006020820190508181036000830152611eb381611e77565b9050919050565b7f5374617274696e672061206e657720766f74696e672073657373696f6e000000600082015250565b6000611ef0601d836115a6565b9150611efb82611eba565b602082019050919050565b60006020820190508181036000830152611f1f81611ee3565b9050919050565b6000611f318261146c565b9150611f3c8361146c565b9250827fffffffffffffffffffffffffffffffffffffffffffffffffffffffffffffffff03821115611f7157611f70611d1c565b5b828201905092915050565b60006040820190508181036000830152611f9681856113d5565b9050611fa56020830184611476565b9392505050565b6000611fb78261146c565b9150611fc28361146c565b925082821015611fd557611fd4611d1c565b5b828203905092915050565b7f4e487b7100000000000000000000000000000000000000000000000000000000600052603260045260246000fd5b7f566f74696e672073657373696f6e2073746f7070656400000000000000000000600082015250565b60006120456016836115a6565b91506120508261200f565b602082019050919050565b6000602082019050818103600083015261207481612038565b9050919050565b7f496e76616c69642073657373696f6e20696e6465780000000000000000000000600082015250565b60006120b16015836115a6565b91506120bc8261207b565b602082019050919050565b600060208201905081810360008301526120e0816120a4565b9050919050565b7f566f74696e67206973207374696c6c206163746976652e20526573756c74732060008201527f63616e206f6e6c7920626520616363657373656420616674657220766f74696e60208201527f6720656e64732e00000000000000000000000000000000000000000000000000604082015250565b60006121696047836115a6565b9150612174826120e7565b606082019050919050565b600060208201905081810360008301526121988161215c565b905091905056fea26469706673582212208870ed16bf728309aa4bebea77bf5ce0230ff5deb0ce3c19dea6b4f13f542f4a64736f6c634300080d0033",
  "immutableReferences": {},
  "source": "// SPDX-License-Identifier: MIT\r\npragma solidity ^0.8.0;\r\n\r\ncontract Voting {\r\n    // State variables\r\n    address public owner; // Owner of the contract\r\n    bool public isVotingActive; // Voting status\r\n    uint public startTime; // Voting start timestamp\r\n    uint public votingEndTime; // Voting end timestamp\r\n    uint public votingDuration; // Voting duration in seconds\r\n    mapping(bytes32 => bool) public hasVoted; // Track whether a voterId has voted\r\n    mapping(uint => uint) public votesReceived; // Track votes for each candidate\r\n    string[] public candidates; // List of candidates\r\n    bytes32[] public voterIds; // Array to track all voters (voterId)\r\n\r\n    // Structure to store past voting session results\r\n    struct VotingSession {\r\n        string[] candidates; // Candidates for the session\r\n        uint[] sessionVotes;  // Vote counts for each candidate\r\n        uint endTime;         // Voting session end timestamp\r\n    }\r\n\r\n    // Array to store voting session history\r\n    VotingSession[] public votingHistory;\r\n\r\n    uint public constant DEFAULT_VOTING_DURATION = 1 days; // Default voting duration\r\n\r\n    // Events\r\n    event VotingStarted(string[] candidates, uint duration);\r\n    event VotingStopped();\r\n    event Voted(bytes32 voterId, uint candidateIndex);\r\n    event Debug(string message); // Event for debugging\r\n\r\n    // Constructor\r\n    constructor(string[] memory _candidateNames) {\r\n        require(_candidateNames.length > 0, \"Candidates array cannot be empty\");\r\n\r\n        owner = msg.sender;\r\n        candidates = _candidateNames;\r\n        votingDuration = DEFAULT_VOTING_DURATION;\r\n        startTime = block.timestamp; // Initialize startTime\r\n        votingEndTime = block.timestamp + votingDuration;\r\n        isVotingActive = true;\r\n\r\n        emit Debug(\"Voting contract deployed with candidates\");\r\n    }\r\n\r\n    // Modifiers\r\n    modifier onlyOwner() {\r\n        require(msg.sender == owner, \"Only the owner can perform this action\");\r\n        _;\r\n    }\r\n\r\n    modifier votingActive() {\r\n        require(isVotingActive, \"Voting is not active\");\r\n        require(block.timestamp <= votingEndTime, \"Voting period has ended\");\r\n        _;\r\n    }\r\n\r\n    // Start a new voting session\r\n    function startVoting(\r\n        string[] memory _candidateNames,\r\n        uint _durationInSeconds\r\n    ) external onlyOwner {\r\n        require(!isVotingActive, \"Voting is already active\");\r\n\r\n        emit Debug(\"Starting a new voting session\");\r\n\r\n        // Reset votes for all candidates\r\n        for (uint i = 0; i < candidates.length; i++) {\r\n            votesReceived[i] = 0;\r\n        }\r\n\r\n        // Set new candidates\r\n        candidates = _candidateNames;\r\n\r\n        // Set voting times\r\n        startTime = block.timestamp; // Set the start time\r\n        votingDuration = _durationInSeconds;\r\n        votingEndTime = block.timestamp + votingDuration;\r\n\r\n        // Activate voting\r\n        isVotingActive = true;\r\n\r\n        // Clear previous voting records\r\n        clearVotingHistory();\r\n\r\n        emit VotingStarted(_candidateNames, _durationInSeconds);\r\n    }\r\n\r\n    // Stop the voting session manually\r\n    function stopVoting() external onlyOwner {\r\n        require(isVotingActive, \"Voting is not active\");\r\n        isVotingActive = false;\r\n\r\n        // Store results in the voting history\r\n        uint[] memory currentVotes = new uint[](candidates.length);\r\n        for (uint i = 0; i < candidates.length; i++) {\r\n            currentVotes[i] = votesReceived[i];\r\n        }\r\n\r\n        // Store the session results\r\n        VotingSession memory newSession = VotingSession({\r\n            candidates: candidates,\r\n            sessionVotes: currentVotes,\r\n            endTime: block.timestamp\r\n        });\r\n        votingHistory.push(newSession);\r\n\r\n        // Clear voting history for the next session\r\n        clearVotingHistory();\r\n\r\n        emit VotingStopped();\r\n        emit Debug(\"Voting session stopped\");\r\n    }\r\n\r\n    // Vote for a candidate\r\n    function vote(bytes32 voterId, uint _candidateIndex) external votingActive {\r\n        require(!hasVoted[voterId], \"You have already voted\");\r\n        require(_candidateIndex < candidates.length, \"Invalid candidate index\");\r\n\r\n        votesReceived[_candidateIndex]++;\r\n        hasVoted[voterId] = true; // Mark voterId as having voted\r\n        voterIds.push(voterId); // Store voterId in the array\r\n\r\n        emit Voted(voterId, _candidateIndex); // Log voterId and candidate index\r\n    }\r\n\r\n    // Clear the hasVoted mapping to reset previous voting records\r\n    function clearVotingHistory() internal {\r\n        // Iterate over the array of voter IDs and clear their voting status\r\n        for (uint i = 0; i < voterIds.length; i++) {\r\n            delete hasVoted[voterIds[i]];\r\n        }\r\n        // Reset the voterIds array\r\n        delete voterIds;\r\n    }\r\n\r\n    // Get the total votes for a candidate (only after voting is stopped)\r\n    function getVotes(uint _candidateIndex) external view returns (uint) {\r\n        require(!isVotingActive, \"Voting is still active. Results can only be accessed after voting ends.\");\r\n        require(_candidateIndex < candidates.length, \"Invalid candidate index\");\r\n        return votesReceived[_candidateIndex];\r\n    }\r\n\r\n    // Get the remaining time until voting ends\r\n    function getTimeRemaining() external view returns (uint) {\r\n        if (block.timestamp > votingEndTime) {\r\n            return 0; // Voting has ended\r\n        }\r\n        return votingEndTime - block.timestamp; // Current time - votingEndTime\r\n    }\r\n\r\n    // Get voting status (active or not)\r\n    function isVotingActiveStatus() external view returns (bool) {\r\n        return isVotingActive && block.timestamp < votingEndTime;\r\n    }\r\n\r\n    // Get the list of candidates\r\n    function getCandidates() external view returns (string[] memory) {\r\n        return candidates;\r\n    }\r\n\r\n    // Get session results by session index\r\n    function getVotingSessionResults(uint sessionIndex) external view returns (VotingSession memory) {\r\n        require(sessionIndex < votingHistory.length, \"Invalid session index\");\r\n        return votingHistory[sessionIndex];\r\n    }\r\n\r\n    function votingHistoryLength() external view returns (uint) {\r\n        return votingHistory.length;\r\n    }\r\n}\r\n",
  "sourcePath": "D:\\MERN\\Voting\\backend\\contracts\\Voting.sol",
  "compiler": {
    "name": "solc",
    "version": "0.8.13+commit.abaa5c0e.Emscripten.clang"
  },
  "schemaVersion": "3.4.16",
  "updatedAt": "2025-01-17T08:08:38.285Z",
  "networkType": "ethereum",
  "devdoc": {
    "kind": "dev",
    "methods": {},
    "version": 1
  },
  "userdoc": {
    "kind": "user",
    "methods": {},
    "version": 1
  }
}